S0170000536D6172744C6974746C65427573682E7372656306
S214400000C03E0020E1134000DD134000DD134000F9
S214400010DD134000DD134000DD134000000000000B
S214400020000000000000000000000000DD1340005B
S214400030DD13400000000000DD134000DD134000EB
S214400040DD134000DD134000DD134000DD134000AB
S214400050DD134000DD134000DD134000DD1340009B
S214400060DD134000DD13400000000000E1114000B9
S214400070F511400009124000DD134000DD1340003A
S2144000800000000000000000DD134000DD134000CB
S214400090DD134000DD134000DD134000051F400027
S2144000A0DD134000DD134000DD134000DD1340004B
S2144000B0DD134000B11D4000DD134000DD1340005D
S2144000C0DD134000DD134000DD13400010B5054C45
S2144000D0237833B9044B13B10448AFF300800123AF
S2144000E0237010BDC809002000000000A495400001
S2144000F00C4B43B10C480D4910B5AFF300800C488B
S214400100036823B910BD0A48036833B97047094BE2
S214400110002BF7D0BDE810401847064B002BF5D013
S214400120184700BF00000000A4954000CC090020FE
S214400130A4954000000000002DE9F04180B90C462F
S2144001409046002A0FDD8F18084E094D306821462C
S2144001502B6898470134BC42F8D14046BDE8F08150
S2144001604FF0FF38F9E78046F7E700BF680E0020FB
S214400170600E00200138022815D82DE9F0410E46C1
S21440018014469AB10D46DFF838800C4FD8F8000078
S21440019015F8011B3B68984700280ADBA81B013C62
S2144001A0F4D1BDE8F0814FF0FF3070471046BDE80F
S2144001B0F0814FF0FF30BDE8F08100BF640E0020B4
S2144001C0680E0020F0B482B0C0F11100102828BF9D
S2144001D01020002808BF01200021104D4FF4005683
S2144001E0374618246F630194019B5A1E0192002BD8
S2144001F0FAD12E630194019B5A1E0192002BFAD12C
S21440020001318142EED34FF400330193019B5A1ED5
S2144002100192002BFAD102B0F0BC704700120E409B
S21440022082B04FF40052064B5A634FF400330193AA
S214400230019B5A1E0192002BFAD102B0704700BFB4
S21440024000120E400B4B1B78012B02D0022B07D01E
S21440025070474FF0C24300221A7022221A7070472D
S2144002604FF0C2432C221A7000221A703C221A7099
S214400270EEE700BFE4090020C0F30742034B1A70C4
S214400280C0F307221A70C0B21870704702000061AF
S2144002902DE9F8430746884631F0070923D004463F
S2144002A00026124D2068A8476068A847A068A8475F
S2144002B0E068A8472069A8476069A847A069A8479A
S2144002C0E069A847083620344E45EBD3464508D269
S2144002D007EB8607054D57F8040BA8470136B0458F
S2144002E0F9D1BDE8F8834E46F0E700BF79024000FA
S2144002F04FF0C24300221A7018700A0A02331A706E
S214400300C9B219707047000010B44FF0C2430024C1
S2144003101C7018704AB14B1E501E51FA80F10448AA
S21440032013F8012F02708B42FAD110BC704700BF01
S2144003300200006182B000230193019B984211D9CC
S2144003400021094A0191019B934205D8019B013344
S2144003500193019B9342F9D9019B01330193019B81
S2144003608342EFD302B070479F86010030B4154CED
S21440037024680568A54224BF04F1FF35056015686A
S214400380AC429CBF04F1FF3414600F4C24680D68E7
S214400390A54224BF04F1FF350D601D68AC429CBFEA
S2144003A004F1FF341C6004681568AC4284BF0560E5
S2144003B014600A681868824284BF08601A6030BCBD
S2144003C0704700BF000000200400002082B04FF0BD
S2144003D0C24300221A70D3221A701A490B788DF83D
S2144003E000300B788DF801300B78DAB28DF80220A9
S2144003F00B78DBB28DF8033003EB02239BB249F255
S2144004004132934214D04FF0C24300221A701A7001
S2144004100C490B78DAB28DF800200B7803EB0223F8
S2144004209BB249F22532934207D0012002B0704772
S2144004300222054B1A700020F8E70122024B1A7080
S2144004400020F3E702000061E409002008B5094BEC
S2144004501B78012B02D0022B06D008BD40F2331188
S2144004600720054B984708BD002211462920034B1C
S2144004709847F2E7E4090020F102400009034000F3
S214400480044A131F02F56F7243F8040F9342FBD1E0
S214400490704700BFE80900202DE9F04182B00C46C5
S2144004A017461E46234B1B78012B04D0022B17D031
S2144004B002B0BDE8F08185B229465020DFF87C8046
S2144004C0C047781E284481B25120C047A4B2214676
S2144004D05220C047013E3444A1B25320C047E7E70C
S2144004E0030A8DF80430C2B28DF805207B1E1844EE
S2144004F0000A8DF806001F4617448DF80770042240
S2144005000DEB02012A200C4DA847230A8DF8043033
S214400510E2B28DF80520731E1C44240A8DF806406E
S2144005201E4616448DF8076004220DEB02012B2070
S214400530A847BDE7E409002009034000F102400057
S21440054038B5074B1B78012B00D038BD0C4601460A
S2144005502020044DA84721462120A847F5E700BFA4
S214400560E4090020F10240002DE9F04383B006463E
S214400570AC4B9847002840F05281F022AA4B1A60B4
S2144005804FF4A072A94B1A60A94B1B78012B06D0DA
S214400590022B00F0B580012003B0BDE8F083332184
S2144005A00720A44CA04700211020A047012100208E
S2144005B0A0474FF480710120A0474FF4E06102202D
S2144005C0A04700210420A04740F207210820A0476A
S2144005D000210920A04700210A20A04700210C2026
S2144005E0A04700210D20A04700210F20A047002152
S2144005F01020A04700211120A04700211220A0472C
S21440060000211320A047C8208B4DA84741F29021D7
S2144006101020A04740F227211120A0473220A847AB
S2144006201B211220A0473220A8474FF488511320A0
S214400630A04719212920A0470D212B20A047322072
S214400640A84700213020A0474FF401713120A04731
S2144006504FF400713220A04707213520A04741F2D1
S21440066004413620A04740F205713720A04740F2AB
S21440067005313820A04740F207713920A04740F2A4
S21440068001713C20A0470E213D20A0474DF21001AD
S2144006900320A0474FF427416020A0470121612056
S2144006A0A04700216A20A04700218020A0470021C3
S2144006B08120A04700218220A04700218320A04718
S2144006C000218420A04700218520A04710219020AB
S2144006D0A0474FF4C0619220A0474FF48871952000
S2144006E0A0477368326800210846544CA047B0685B
S2144006F0534B984700210846524B984700204BE7FB
S21440070039238DF800302C238DF8013000248DF8E5
S214400710024034238DF8033002278DF804700522FA
S2144007206946CB20484DA8478DF80040AA238DF84F
S2144007300130B0238DF8023003226946CF20A84707
S21440074030238DF8003001226946F720A84725233C
S2144007508DF8003001226946C020A8474FF01109A5
S2144007608DF8009001226946C120A8475C238DF889
S21440077000304C238DF801303A466946C520A847DC
S21440078094238DF8003001226946C720A847852368
S2144007908DF800304FF001088DF8018078238DF8F1
S2144007A0023003226946E820A8478DF800408DF8BD
S2144007B001403A466946EA20A84748238DF800306B
S2144007C0424669463620A84706238DF80030424602
S2144007D069463A20A8478DF8007082238DF801308C
S2144007E027238DF802308DF8034004226946B62050
S2144007F0A8477368326821462046104FB847B0680D
S2144008000F4B9847224669464846A8470A200A4B57
S2144008109847224669462920A8472046BCE601203C
S214400820BAE600BFCD0340000000002004000020D0
S214400830E4090020F10240003503400099044000DE
S214400840810440004105400009034000164B1B68E8
S214400850834224D9154B1B688B4222D910B5144BC2
S2144008601B78012B03D0022B0DD0002010BD89B27F
S21440087080B2104B9847104B9847104B1868104B57
S2144008809847002010BD00231A460E4CA0470A4B3E
S21440089098470A4B18680A4B9847002010BD01201D
S2144008A070470120704700BF000000200400002071
S2144008B0E40900204105400045024000E8090020C8
S2144008C079024000990440002DE9F04184B003903D
S2144008D00291019204AA42F8103D134601AA02A9C9
S2144008E003A8224CA04703980299009B0133019A23
S2144008F001325B1A121A1E4CA047BDF80810BDF80C
S2144009000C001C4B98471C4B9847039A019B9A1A1D
S214400910009B03F10108029BA8EB030802FB088832
S214400920164BA3FB0823DB0953B15C1E144FF0267D
S214400930144D31463846A847013CB4F1FF3FF8D144
S2144009400E49A1FB0831C909C1EB0111A8EB011101
S2144009500B480C4B98470C4B1B680C4A12680021FE
S2144009600846034CA04704B0BDE8F0816D03400044
S2144009709904400041054000450240008988888827
S214400980E8090020910240000400002000000020FA
S2144009902DE9F04F85B0039002921378002B48D093
S2144009A08B460190DFF8948033E00BF1100B039BED
S2144009B0019329E0013CB4F1FF3F09D02B78234155
S2144009C013F0010FF6D0AAEB04013046C047F1E71A
S2144009D007240BF10F0902E0013C012C09D07B787B
S2144009E0234113F0010FF7D0A9EB04013046C0476E
S2144009F0F2E702350136009BB34202D007242F4669
S214400A00DCE7019B0C330193029A12F8013F0292F5
S214400A107BB10A2BC9D003EB8303074D05EB830359
S214400A20A3F52075019E33460A3300930BF1070A5F
S214400A30E4E705B0BDE8F08F148A40004D0840005A
S214400A4030B4012404600024446040F20225C0F81B
S214400A502051C0F80441C0F8144145685200B1FB2B
S214400A60F2F2013A120292B22B431A4342602046F7
S214400A7030BC70474368D201D2B219430A43426041
S214400A80704710B44468090601F0706121430A4378
S214400A90190701F040511143416010BC70470223D2
S214400AA003607047012303FA01F1016170470F2983
S214400AB09ABF503050F8210000207047416270477E
S214400AC0006B7047D0F8943043F01003C0F8943071
S214400AD0704709014250704700EB01114A60704769
S214400AE000EB01118A60704700EB0111CA60704745
S214400AF010B489014318022444504FF0FF319962E4
S214400B00196A5A6010BC70478901052343507047E4
S214400B1000EB8111CA61704700EB81114A62704751
S214400B2000EB8111086A7047F0B486B00224019445
S214400B300824029420240394802404940A9CE40B02
S214400B400594B0EB510F14D84C0CA04217D2012597
S214400B5001AF57F82540B1FBF4F4260C84420AD383
S214400B6086420DD90135052DF3D1002006B0F0BCE4
S214400B7070470020FAE70020F8E70120F6E7002556
S214400B802AB106A901EB850151F8141C1160002B0F
S214400B90F3D01D600120E9E710B50E480E4B98478C
S214400BA03E2100200D4B98470D4CA0470028FCD016
S214400BB00C4B98470C4A0D4B9A620D4CA0470028A8
S214400BC0FCD010200B4B98470B4B98470148024BE4
S214400BD0984710BD000E27079D1540008112400023
S214400BE0D5124000E5124000013F132000040E409D
S214400BF0F51240001D1240008D14400038B54FF4E9
S214400C000042464B5A600B20454CA0470C20A0475C
S214400C100D20A0474FF060511320424CA0474FF0A4
S214400C2060511420A04740492320A0473F494C200C
S214400C30A0474FF000624FF4C0613D483D4B984797
S214400C404FF080510020A0474FF080510820A04729
S214400C504FF080515220A0474FF000610C20A04733
S214400C604FF000610D20A0474FF000610E20A047D6
S214400C704FF000610B20A0474FF000611520A047C1
S214400C804FF000611620A0474FF040511720A04774
S214400C901720294B9847294D29464020A0472946EA
S214400CA04120A04729464220A04729464320A04746
S214400CB029464420A04729464520A04729464620A5
S214400CC0A04729464720A04729464B20A04729460B
S214400CD04820A04729464F20A04729465320A047F2
S214400CE04FF040514D20A04705F1005529461020B1
S214400CF0A04729461120A0474FF000610C20A0478E
S214400D004FF000610D20A0474FF000610E20A04735
S214400D104FF000610B20A04738BD00BF50140E4076
S214400D2005134000110F40007900002859000028A4
S214400D30000E0E4031104000F50E40000100000845
S214400D402DE9F04106460024094D0A4FDFF8288079
S214400D5003E0C0470834182C08D06059B042F9D197
S214400D602B195B68012BF4D0B847F3E7BDE8F08158
S214400D7094914000DB0E4000F50E40002DE9F04116
S214400D8006460024094D0A4FDFF8288003E0C04796
S214400D900834182C08D06059B042F9D12B195B683A
S214400DA0012BF4D0B847F3E7BDE8F08194914000BA
S214400DB0F50E4000DB0E40004264B1F1C05F39D012
S214400DC013D8B1F1006F25D0B1F1805F0AD1036F1F
S214400DD013430367436F416F0B4023EA02034367A5
S214400DE0426070470029FBD17047B1F1205F20D0A8
S214400DF009D8B1F1005FF3D1036F13430367436F24
S214400E0013434367ECE7B1F1405F12D0B1F1605F46
S214400E100FD0E5E710B4016F046FD34321401C4662
S214400E2019400167436F416F0B4023404367426060
S214400E3010BC7047036F016F0B4023EA0203036741
S214400E40436F13434367CBE7416412F0010F14BF6F
S214400E504166016612F00A0F14BF0162416212F049
S214400E60020F07D112F0080F18BFC0F88410416176
S214400E7001607047C0F88010F9E710B4019C4164E7
S214400E8044B9016643B1016542B9416301610160FD
S214400E9010BC70474166F5E74165F5E70163F5E745
S214400EA012F0100F10D0C0F8B01012F0200F14BF80
S214400EB0C0F8D410C0F8D01012F0400F14BFC0F8DD
S214400EC0C010C0F8C4107047C0F8B4107047016432
S214400ED07047C06C7047806C7047430903F5001339
S214400EE003F207735B0200F01F00012202FA00F0D3
S214400EF018637047430903F5001303F207735B0258
S214400F0000F01F00012202FA00F05863704700000C
S214400F1070B582B00D46430903F5001303F207731C
S214400F205C0201F0F043B3F1005F53D00AD8B3F14E
S214400F30805F2DD0B3F1C05F3BD0B3F1006F15D0CA
S214400F40002023E0B3F1405F55D0B3F1605F52D04C
S214400F50B3F1205FF4D100F01F0101262A4606FABD
S214400F6001F120462F4B984730460FE000F01F0017
S214400F700126864032464FF0006120462A4B98476D
S214400F8015F0010F14BF66662666012002B070BDDC
S214400F9000F01F000126864032464FF08051204622
S214400FA0214B984715F0010F14BF66662666012050
S214400FB0ECE700F01F000126864032464FF0C05155
S214400FC02046194B984715F0010F14BF66662666F3
S214400FD00120DBE700F01F000126864032464FF036
S214400FE000512046104B984715F0010F14BF666617
S214400FF026660120CAE705F0605200F01F01012670
S21440100005EA06030093C5F38003B2F1605F14BFA0
S2144010100022012206FA01F12046044CA047304641
S214401020B4E700BF490E4000B90D40007B0E4000BB
S21440103070B582B005460E46144602F0F043B3F152
S214401040005F3DD00AD8B3F1805F21D0B3F1C05FD6
S2144010502AD0B3F1006F0ED0002017E0B3F1405F06
S2144010603AD0B3F1605F37D0B3F1205FF4D1234B71
S214401070984701200AE00A464FF00061204B984707
S21440108014F0010F14BF6E662E66012002B070BDCC
S2144010900A464FF080511A4B984714F0010F14BF80
S2144010A06E662E660120F1E70A464FF0C051144B9B
S2144010B0984714F0010F14BF6E662E660120E5E7D0
S2144010C00A464FF000510E4B984714F0010F14BFDC
S2144010D06E662E660120D9E704F0605204F00103E4
S2144010E00093C4F38003B2F1605F14BF0022012274
S2144010F031462846034CA0470120C7E7490E40002A
S214401100B90D40007B0E40002DE9F84381460F465E
S214401110124B984705464846114B9847054013D012
S214401120104C04F1600603E0B4420DD010345DB1BB
S2144011302068B842F8D161682942F5D0E3689847FC
S214401140636825EA0305EFE7074B1B6823B1074BA7
S2144011501B680BB148469847BDE8F883D30E40005D
S214401160D70E4000A80D00206C0E00201C0E00205C
S214401170F8B5184C2668062E29D84FF0000C644661
S214401180154F04E00134E4B2A446A64209D3A6466D
S21440119025017D598D42F5D107EB04156D689542C2
S2144011A0F0D10D4D4FEA0E1E05EB0E0445F80E101D
S2144011B06260A3600699E1600136664504BF054952
S2144011C00E6011461A46054B98470020F8BD012090
S2144011D0F8BD00BF180E0020A80D0020A10E40004C
S2144011E008B50B210148024B984708BD000E0E403B
S2144011F00911400008B50C210148024B984708BD2C
S21440120000100E400911400008B50D210148024B60
S214401210984708BD00120E4009114000174A136B4C
S21440122023F0700318431063936E13F0080F0AD12F
S2144012304FF4006311498A6E12F0080F03D1013B48
S214401240F9D1012070470D4A136B23F0030343F096
S21440125002031363936E13F0080F0AD14FF4006332
S21440126006498A6E12F0080F05D1013BF9D10120DC
S2144012707047002070470020704700BF00040E40B3
S214401280C8B9114A136A090289B223F45C1323F0E1
S214401290030343F45C1343F001030B431362936E62
S2144012A013F0010FFBD0084A136A43F09B7343F4D4
S2144012B080331362704704490B6A044A1A40044B51
S2144012C013430B62704700BF00040E40FCFFC8FE8D
S2144012D002003701024B986E00F48030704700BF22
S2144012E000040E404FF00052014B9A62704700BF18
S2144012F000040E40024B986E00F00200704700BF9C
S21440130000040E4022281ED81F280CD8114B9A697C
S21440131001238340934318D0012303FA00F00D4B7A
S21440132018610020704720380A4BD3F80821012363
S214401330834093430BD0012303FA00F0054BC3F8D8
S21440134000010020704701207047002070470020B1
S214401350704700BF00040E4010B4AC2303600B6817
S2144013604A68B3FBF2F31B095C1E4FF6FE729442CA
S2144013700BD803628B68436040F20223C0F82031EA
S21440138050230360002010BC70470120FBE74369F0
S21440139013F0020F1ABFC161002001207047436955
S2144013A013F0010F1DBF83690B70002001207047AA
S2144013B0436913F0020F1DBFC1F30801C16100204D
S2144013C001207047436913F0010F05D08369C3F3CA
S2144013D008030B600020704701207047FEE70000BE
S2144013E008B5214B214A9A4228D9214B1E4A9A4297
S2144013F00CD2013B9B1A23F00303043313441B49CE
S21440140051F8040B42F8040B9A42F9D100BF194B2D
S214401410194A9A420AD2013B9B1A23F0030304332B
S2144014201344002142F8041B9A42FBD1134B144A42
S2144014309A60144B9847144B9847FEE70A4B0B4A62
S2144014409A42E3D20A4B0848181A1146043A024414
S2144014500028DBD0C1F1040152F8040943F8040D1A
S214401460CA42F9D1D2E700BF00000020A495400050
S214401470C8090020C00E0020C809002000ED00E08A
S21440148000004000592D4000991A40003C4B1B6B11
S21440149003F00303032B0ED8DFE803F0021C3838B2
S2144014A0384B5B6913F0800F14BF4FF400424FF483
S2144014B0FA42354B1A60324B1B6B03F07003702BAD
S2144014C055D02F4B1A6B3049C2F302120B68D340EB
S2144014D00B6070472A4B1B6A13F0807F03D02B4A61
S2144014E0294B1A60E7E72A4A274B1A60244B1B6AA7
S2144014F003F07003102B05D0202BDCD1234A224B5F
S2144015001A60D8E7234A204B1A60D4E71C4B1B6A64
S21440151013F0807F18D01D4A1B4B1A60184B1B6B6C
S21440152003F00303022B164A07BF916A926AD16AF8
S214401530D26A1548C1F30A41036801FB0333D2B2AD
S214401540B3FBF2F30360B6E7114A0F4B1A600C4B3D
S2144015501B6A03F07003102B05D0202BDED10B4AFC
S214401560094B1A60DAE70B4A074B1A60D6E7064A79
S21440157013680949A1FB03135B081360704700BF5B
S21440158000040E4010140E4008000020001BB70058
S21440159000093D0000127A00ABAAAAAA1A4B98424C
S2144015A014D91A4B984219D9194B98421DD9194B40
S2144015B0984221D9184B984294BF4FF00423174BBA
S2144015C0174A136002F50072136070474FF080634D
S2144015D0134A136002F5007213607047114B104AAD
S2144015E0136002F50072136070470F4B0C4A13608D
S2144015F002F50072136070470C4B094A136002F5FF
S21440160000721360704700BFFF2C3101FF59620221
S214401610FF869303FFB3C404FFE0F505000500040E
S214401620000A0E400001000400020004000300040B
S2144016300A4B1B6853B1094B1B681A18084991425C
S21440164008DB1046054A106018467047054A034BAB
S2144016501A60F0E74FF0FF30704700BF200E0020C2
S214401660FC7F0220C03E00204FF0FF3070474FF412
S21440167000534B60002070470120704700207047A1
S214401680F0B583B005460C4600230193184B9842AC
S2144016900AD0184B98420FD0174B984214D0174B8D
S2144016A09D421BD003B0F0BD1F46154E214638461E
S2144016B0B0470028FAD1F2E71E46114D2146304683
S2144016C0A8470028FAD1EDE71E460E4D01A9304640
S2144016D0A8470028FAD1019B2370E3E71E46094D30
S2144016E001A93046A8470028FAD1019B2370D9E7C4
S2144016F000060E4000080E400040024000800240B7
S2144017009F134000C513400070B50C46184B9842D6
S2144017100AD0184B984210D0174B984216D0174B09
S21440172098421CD0002070BD1E46154D21463046BE
S214401730A8470028FAD1012070BD1E46104D21460C
S2144017403046A8470028FAD1012070BD1E460D4DF0
S21440175021463046A8470028FAD1012070BD1E46D3
S214401760084D21463046A8470028FAD1012070BDD2
S21440177000060E4000080E40004002400080024036
S2144017808F134000B11340002DE9F0410A202E4B44
S21440179098472E4C4FF00232012120462C4B98475A
S2144017A02C4A012120462C4B98472C4A01212046A2
S2144017B02B4B98470322012120462A4B98472A4D17
S2144017C0F0262E604FF4A0776F600024AC606FF078
S2144017D07F48C5F80C80254B98472846244B9847A9
S2144017E00820244B98474046234DA8473B46324660
S2144017F021462046214EB047214B98472146204659
S214401800204B98472046A8471F4A14210A201F4CC1
S214401810A0471F4A32210A20A0471E4A50210A20CC
S214401820A0471D4A6E210A20A0471C4A8C210A2048
S214401830A0471B4AAA210A20A0471A4AC8210A20C4
S214401840A047BDE8F08100BF0513400000000E40F1
S214401850D30A400004040A0AD90A40000A001600C7
S214401860E10A4000E90A40007C0E002021024000C8
S21440187069054000C501400081044000C908400099
S2144018804D04400041054000389240009109400018
S214401890489240005892400068924000789240003B
S2144018A088924000989240000F4B4FF400225A60B6
S2144018B01A6F42F400221A675A6F22F400225A67BF
S2144018C04FF00042A3F520631A61084B0022C3F88C
S2144018D000224FF48052C3F80C2240F6AC52C3F8B4
S2144018E0042201225A607047000E0E40000002405B
S2144018F02DE9F04184B0DFF88C80CDF80480164C9A
S21440190023680293A36803930820144FB847144DE6
S21440191001A92846134EB047134B1D60134A144B7B
S2144019201A60144A144B1A60CDF804802368029358
S214401930A36803930820B84701A92846B0470F4D2F
S2144019402B68002198680E4CA0472B6800215868E9
S214401950A04704B0BDE8F0810C000020051340000D
S21440196000060E4059134000680E0020091740003C
S214401970640E002081164000600E00201C000020EF
S2144019806D2E4000000E270730B583B00D4C09225F
S214401990082120460C4B98470C4B00937023082296
S2144019A00C2120460A4DA84708212046094B984757
S2144019B0094BE02283F80C234FF480521A6003B0A0
S2144019C030BD00BF00100E40490E4000111C4000C4
S2144019D071114000CF0E400000E100E038B51D20F8
S2144019E01A4B98471A4C4FF480231A4A1A492046F5
S2144019F01A4DA84702234FF440120F212046184D97
S214401A00A847002211462046164B984705212046F7
S214401A10154DA84706212046A8470F212046A8472F
S214401A202046124B9847124B002283F81D234FF056
S214401A3000521A60202120460E4DA84740212046DD
S214401A40A8474FF400412046A84738BD051340003C
S214401A500080034000A86100000E2707410A4000AE
S214401A60830A4000750A4000A50A4000C50A4000A7
S214401A7000E100E0BD0A4000064B1A6842F480428E
S214401A801A601A6942F480421A611A6B42F4804224
S214401A901A63704700100E4000B585B0214B98473A
S214401AA0214B9847214B9847214B9847214B9847C5
S214401AB0214B9847214B9847214B98471720214B5D
S214401AC09847214D009503AB02AA294601201F4C9A
S214401AD0A0471F4C039A42F48042002120461D4BEB
S214401AE09847029AB5FBF2F2002120461A4B9847D7
S214401AF01A4B4FF40002C3F88021502183F8171385
S214401B001A60102200212046154B98470021204697
S214401B10144B98470023144A1370144A1370144AFF
S214401B201370FEE7990B4000FD0B4000791A400009
S214401B3089174000DD194000A9184000F118400000
S214401B408919400005134000000E2707290B400066
S214401B5000000140F10A4000110B400000E100E0A7
S214401B60190B4000090B40008D0E0020710E00201E
S214401B70780E002010B5154B19781548154CA0471F
S214401B80154B1868154B984701461548A047154B06
S214401B9019781548A047154B19681548A047154BA6
S214401BA019781548A047154B1B78012B07D0144BC6
S214401BB01B78012B06D01348064B984710BD124899
S214401BC0A047F4E71148034B9847F4E78D0E0020F2
S214401BD0AC914000A92D4000240E0020192D400055
S214401BE0C0914000960E0020D4914000740E002014
S214401BF0EC9140008E0E0020FC914000710E0020BB
S214401C00780E0020BC914000109240002092400088
S214401C1008B50122034B1A700820034B9847034B24
S214401C20984708BD780E0020C5014000751B40004F
S214401C3030B591B0384BD3F80422642303FB02F34B
S214401C40364AA2FB03129B1A02EB5302D20AD3B2C5
S214401C5033490B70002B56D10021324B1970324D50
S214401C60D2B229460DA8314CA047314B1868314BAB
S214401C70984702460B4630490AA8A0472F4B1A7889
S214401C80294607A8A0472E4B1A682E4904A8A04705
S214401C902D4B1A78294601A8A0472C482C4CA04723
S214401CA04FF4A073F0220021AA202A4DA847002016
S214401CB0A0470DAA1421B420274CA0470AAA3221D7
S214401CC0B420A04707AA5021B420A04704AA6E21FA
S214401CD0B420A04701AA8C21B420A047114B1B7802
S214401CE0012B14D01D4AAA21B4201B4B98471C4BED
S214401CF01B78012B0CBF1B4A1B4AC821B420164B2D
S214401D00984711B030BD0121064B1970A7E7174A16
S214401D10AA21B420A047EAE70000024001011000D3
S214401D208D0E0020710E0020A89240000D3040001D
S214401D30240E0020F1224000B0924000960E002073
S214401D40740E0020B89240008E0E0020EBCE870026
S214401D5081044000C908400091094000C0924000FC
S214401D60780E0020C4924000C8924000BC924000CA
S214401D7008B50B4B1B78132B0CD9143BDBB2132B3B
S214401D8094BF40F6D8620022064BC3F80822064BA2
S214401D90984708BD40F6FF72024BC3F80822F6E7A4
S214401DA0960E002000000240311C4000000000005B
S214401DB070B53F483F4B984710F0200F0CD13C4839
S214401DC03C4B984710F0400F21D13948394B984743
S214401DD010F4004F2CD170BD05213548364B98473E
S214401DE0C0F57F600F30354BA3FB0030C0F3C70013
S214401DF0642808D8324B1870324B1B780A2BDED931
S214401E00314B9847DBE764222D4B1A70F4E70621E6
S214401E102748294B9847642303FB00F02B4BA3FB32
S214401E200023C01A03EB5003DB0A294A1370CCE7A1
S214401E300F211F48204B9847264B1C78092C0CD95D
S214401E400022244B1A70244C24492068244B98477F
S214401E50244B186000232360BDE71F4D40F6E44343
S214401E6003FB00F0194BA3FB0023C01A03EB500002
S214401E70C00AA0F5B4601C4B98471C4B98470AA371
S214401E80D3E900231A4EB04700221A4B1A4EB047E9
S214401E901A4B984729681A4B9847286001340D4BCF
S214401EA01C7070BDAFF3008096CFF23CB83BCB3F82
S214401EB000800340C10A4000AF0A4000CDCCCCCCE5
S214401EC0960E0020940E0020711D40000101100067
S214401ED08E0E00208C0E0020280E00200000204190
S214401EE0E12B4000240E0020D1294000F122400082
S214401EF09923400000003B4035204000BD2740006D
S214401F006928400008B5364A136801331360354ADD
S214401F1013780133137000213348344B98473448C4
S214401F20344B9847344B1B78012B2AD00023324A37
S214401F301370324A1370324B9847324A536B43F40D
S214401F40804353631420304B9847264B1B78142B02
S214401F503CD8234B1B680A2B03D82C4B1B785E2B94
S214401F6004D900221E4B1A60294B98471C4B1B680D
S214401F700A2B31D0C3F10A03264A1360264B9847F2
S214401F8008BD264B1B783B2B04D81E4A136B43F4E4
S214401F90804313631420224B9847184B1B783C2BE6
S214401FA004D8164A137801331370CEE70023124A3A
S214401FB01370124A1370124B9847124A536B43F4ED
S214401FC0804353631420104B9847EAE70022054BA2
S214401FD01A70144B9847BCE700220E4B1A60CDE7A8
S214401FE0900E0020700E002000000140210B4000A3
S214401FF0008003409F0A4000780E0020950E002087
S2144020002102400000100E40410D4000960E002078
S214402010711D4000740E0020311C40008E0E0020C2
S2144020207D0D4000751B400081F0004102E000BF7E
S21440203083F0004330B54FEA41044FEA430594EA43
S214402040050F08BF90EA020F1FBF54EA000C55EA7E
S214402050020C7FEA645C7FEA655C00F0E2804FEA4F
S2144020605454D4EB5555B8BF6D420CDD2C4480EA31
S214402070020281EA030382EA000083EA010180EA61
S214402080020281EA0303362D88BF30BD11F0004FAF
S2144020904FEA01314FF4801C4CEA113102D04042E5
S2144020A061EB410113F0004F4FEA03334CEA133320
S2144020B002D0524263EB430394EA050F00F0A78038
S2144020C0A4F10104D5F1200E0DDB02FA0EFC22FA33
S2144020D005F2801841F1000103FA0EF2801843FA27
S2144020E005F359410EE0A5F120050EF1200E012A18
S2144020F003FA0EFC28BF4CF0020C43FA05F3C01856
S21440210051EBE37101F0004507D54FF0000EDCF1CE
S214402110000C7EEB00006EEB0101B1F5801F1BD377
S214402120B1F5001F0CD349085FEA30004FEA3C0C7B
S21440213004F101044FEA445212F5800F80F09A8071
S214402140BCF1004F08BF5FEA500C50F1000041EB75
S214402150045141EA050130BD5FEA4C0C404141EB79
S214402160010111F4801FA4F10104E9D191F0000FA0
S21440217004BF01460020B1FA81F308BF2033A3F123
S2144021800B03B3F120020CDA0C3208DD02F1140C1A
S214402190C2F10C0201FA0CF021FA02F10CE002F155
S2144021A01402D8BFC2F1200C01FA02F120FA0CFC4E
S2144021B0DCBF41EA0C019040E41AA2BF01EB045197
S2144021C0294330BD6FEA04041F3C1CDA0C340EDC95
S2144021D004F11404C4F1200220FA04F001FA02F3D8
S2144021E040EA030021FA04F345EA030130BDC4F196
S2144021F00C04C4F1200220FA02F001FA04F340EA8B
S2144022000300294630BD21FA04F0294630BD94F03B
S214402210000F83F4801306BF81F480110134013D22
S2144022204EE77FEA645C18BF7FEA655C29D094EA93
S214402230050F08BF90EA020F05D054EA000C04BF11
S2144022401946104630BD91EA030F1EBF00210020FC
S21440225030BD5FEA545C05D14000494128BF41F09B
S214402260004130BD14F580043CBF01F5801130BDFF
S21440227001F0004545F0FE4141F470014FF000008A
S21440228030BD7FEA645C1ABF194610467FEA655C3B
S2144022901CBF0B46024650EA013406BF52EA0335DD
S2144022A091EA030F41F4002130BD00BF90F0000FCB
S2144022B004BF0021704730B54FF4806404F1320407
S2144022C04FF000054FF0000150E700BF90F0000FC0
S2144022D004BF0021704730B54FF4806404F13204E7
S2144022E010F0004548BF40424FF000013EE700BFB7
S2144022F042004FEAE2014FEA31014FEA02701FBF47
S21440230012F07F4393F07F4F81F06051704792F018
S214402310000F14BF93F07F4F704730B54FF4607492
S21440232001F0004521F0004120E700BF50EA0102DD
S21440233008BF704730B54FF000050AE050EA01028A
S21440234008BF704730B511F0004502D5404261EBFA
S21440235041014FF4806404F132045FEA915C3FF43B
S214402360DCAE4FF003025FEADC0C18BF03325FEAD4
S214402370DC0C18BF033202EBDC02C2F1200300FA89
S21440238003FC20FA02F001FA03FE40EA0E0021FAAE
S21440239002F11444C1E600BF70B54FF0FF0C4CF498
S2144023A0E06C1CEA11541DBF1CEA135594EA0C0F4E
S2144023B095EA0C0F00F0DEF82C4481EA030621EA89
S2144023C04C5123EA4C5350EA013518BF52EA0335C4
S2144023D041F4801143F4801338D0A0FB02CE4FF076
S2144023E00005E1FB02E506F00042E0FB03E54FF0A6
S2144023F00006E1FB03569CF0000F18BF4EF0010E9E
S214402400A4F1FF04B6F5007F64F5407404D25FEA99
S2144024104E0E6D4146EB060642EAC62141EA55514C
S2144024204FEAC52040EA5E504FEACE2EB4F1FD0C8E
S21440243088BFBCF5E06F1ED8BEF1004F08BF5FEA0C
S214402440500E50F1000041EB045170BD06F00046BE
S21440245046EA010140EA020081EA0301B4EB5C046B
S214402460C2BFD4EB0C0541EA045170BD41F4801163
S2144024704FF0000E013C00F3AB8014F1360FDEBF88
S214402480002001F0004170BDC4F10004203C35DA64
S2144024900C341BDC04F11404C4F1200500FA05F3E7
S2144024A020FA04F001FA05F240EA020001F0004288
S2144024B021F0004110EBD37021FA04F642EB0601FE
S2144024C05EEA430E08BF20EAD37070BDC4F10C0428
S2144024D0C4F1200500FA04F320FA05F001FA04F2EC
S2144024E040EA020001F0004110EBD37041F10001D8
S2144024F05EEA430E08BF20EAD37070BDC4F12005E3
S21440250000FA05F24EEA020E20FA04F301FA05F24A
S21440251043EA020321FA04F001F0004121FA04F2F2
S21440252020EA020000EBD3705EEA430E08BF20EAC2
S214402530D37070BD94F0000F0FD101F000464000FC
S21440254041EB010111F4801F08BF013CF7D041EA7E
S214402550060195F0000F18BF704703F00046520082
S21440256043EB030313F4801F08BF013DF7D043EA53
S2144025700603704794EA0C0F0CEA135518BF95EA09
S2144025800C0F0CD050EA410618BF52EA4306D1D190
S21440259081EA030101F000414FF0000070BD50EAAF
S2144025A0410606BF1046194652EA430619D094EA39
S2144025B00C0F02D150EA013613D195EA0C0F05D123
S2144025C052EA03361CBF104619460AD181EA030177
S2144025D001F0004141F0FE4141F470014FF000002F
S2144025E070BD41F0FE4141F4780170BD70B54FF0CA
S2144025F0FF0C4CF4E06C1CEA11541DBF1CEA13554A
S21440260094EA0C0F95EA0C0F00F0A7F8A4EB05042B
S21440261081EA030E52EA03354FEA013100F0888022
S2144026204FEA03334FF0805545EA131343EA1263EB
S2144026304FEA022245EA111545EA10654FEA0026A0
S2144026400EF000419D4208BF964244F1FD0404F559
S214402650407402D25B084FEA3202B61A65EB0305B5
S2144026605B084FEA32024FF480104FF4002CB6EB72
S214402670020E75EB030E22BFB61A754640EA0C00F2
S2144026805B084FEA3202B6EB020E75EB030E22BF32
S214402690B61A754640EA5C005B084FEA3202B6EB73
S2144026A0020E75EB030E22BFB61A754640EA9C0032
S2144026B05B084FEA3202B6EB020E75EB030E22BF02
S2144026C0B61A754640EADC0055EA060E18D04FEAC0
S2144026D0051545EA16754FEA06164FEAC30343EA60
S2144026E052734FEAC2025FEA1C1CC0D111F4801F2D
S2144026F00BD141EA00014FF000004FF0004CB6E726
S21440270011F4801F04BF01430020B4F1FD0C88BFC4
S214402710BCF5E06F3FF6AFAEB5EB030C04BFB6EBCF
S214402720020C5FEA500C50F1000041EB045170BDC2
S2144027300EF0004E4EEA113114EB5C04C2BFD4EBEF
S2144027400C0541EA045170BD41F480114FF0000E73
S214402750013C90E645EA060E8DE60CEA135594EAEF
S2144027600C0F08BF95EA0C0F3FF43BAF94EA0C0FF2
S2144027700AD150EA01347FF434AF95EA0C0F7FF467
S21440278025AF104619462CE795EA0C0F06D152EABB
S21440279003353FF4FDAE1046194622E750EA41069F
S2144027A018BF52EA43067FF4C5AE50EA41047FF4B0
S2144027B00DAF52EA43057FF4EBAE12E74FEA410213
S2144027C0B2F1E04324BFB3F5001CDCF1FE5C0DD94A
S2144027D001F0004C4FEAC0024CEA5070B2F1004F94
S2144027E040EB830008BF20F00100704711F0804F97
S2144027F021D113F13872BCBF01F00040704741F45C
S21440280080114FEA5252C2F11802C2F1200C10FA5F
S2144028100CF320FA02F018BF40F001004FEAC12343
S2144028204FEAD32303FA0CFC40EA0C0023FA02F3E7
S2144028304FEA4303CCE77FEA625307D150EA0133BD
S2144028401EBF4FF0FE4040F44000704701F000408D
S21440285040F0FE4040F40000704700BF80F000406B
S21440286002E000BF81F0004142001FBF5FEA410323
S21440287092EA030F7FEA226C7FEA236C6AD04FEA23
S2144028801262D2EB1363C1BFD21841404840414068
S214402890B8BF5B42192B88BF704710F0004F40F41A
S2144028A0000020F07F4018BF404211F0004F41F436
S2144028B0000121F07F4118BF494292EA030F3FD002
S2144028C0A2F1010241FA03FC10EB0C00C3F1200315
S2144028D001FA03F100F0004302D5494260EB4000A4
S2144028E0B0F5000F13D3B0F1807F06D340084FEA0F
S2144028F0310102F10102FE2A51D2B1F1004F40EB04
S214402900C25008BF20F0010040EA0300704749006B
S21440291040EB000010F4000FA2F10102EDD1B0FA36
S21440292080FCACF1080CB2EB0C0200FA0CF0AABF2B
S21440293000EBC25052421843BCBFD04018437047C9
S21440294092F0000F81F4000106BF80F400000132CF
S214402950013BB5E74FEA41037FEA226C18BF7FEAA6
S214402960236C21D092EA030F04D092F0000F08BFE8
S2144029700846704790EA010F1CBF0020704712F0CF
S2144029807F4F04D1400028BF40F00040704712F10E
S21440299000723CBF00F50000704700F0004343F073
S2144029A0FE4040F4000070477FEA226216BF0846A9
S2144029B07FEA23630146420206BF5FEA412390EA6C
S2144029C0010F40F4800070474FF0000304E000BF62
S2144029D010F0004348BF40425FEA000C08BF704713
S2144029E043F0964301464FF000001CE050EA0102D7
S2144029F008BF70474FF000030AE000BF50EA0102EC
S214402A0008BF704711F0004302D5404261EB4101D8
S214402A105FEA010C02BF84460146002043F0B643FD
S214402A2008BFA3F18053A3F50003BCFA8CF2083A22
S214402A30A3EBC25310DB01FA02FC634400FA02FC2B
S214402A40C2F12002BCF1004F20FA02F243EB020032
S214402A5008BF20F00100704702F1200201FA02FC94
S214402A60C2F1200250EA4C0021FA02F243EB020087
S214402A7008BF20EADC7070474FF0FF0C1CEAD052CB
S214402A801EBF1CEAD15392EA0C0F93EA0C0F6FD08C
S214402A901A4480EA010C400218BF5FEA41211ED06A
S214402AA04FF0006343EA501043EA5111A0FB013156
S214402AB00CF00040B1F5000F3EBF490041EAD3712B
S214402AC05B0040EA010062F17F02FD2A1DD8B3F1A7
S214402AD0004F40EBC25008BF20F00100704790F016
S214402AE0000F0CF0004C08BF49024CEA502040EA68
S214402AF051207F3AC2BFD2F1FF0340EAC25070472E
S214402B0040F400004FF00003013A5DDC12F1190F6B
S214402B10DCBF00F000407047C2F10002410021FADD
S214402B2002F1C2F1200200FA02FC5FEA310040F1F5
S214402B30000053EA4C0308BF20EADC70704792F06E
S214402B40000F00F0004C02BF400010F4000F013AA6
S214402B50F9D040EA0C0093F0000F01F0004C02BFA1
S214402B60490011F4000F013BF9D041EA0C018FE710
S214402B700CEAD15392EA0C0F18BF93EA0C0F0AD016
S214402B8030F0004C18BF31F0004CD8D180EA01003C
S214402B9000F00040704790F0000F17BF90F0004FD5
S214402BA0084691F0000F91F0004F14D092EA0C0FB7
S214402BB001D142020FD193EA0C0F03D14B0218BF4A
S214402BC0084608D180EA010000F0004040F0FE4090
S214402BD040F40000704740F0FE4040F4400070472C
S214402BE04FF0FF0C1CEAD0521EBF1CEAD15392EAAB
S214402BF00C0F93EA0C0F69D0A2EB030280EA010C9B
S214402C0049024FEA402037D04FF0805343EA111133
S214402C1043EA10130CF000408B4238BF5B0042F191
S214402C207D024FF4000C8B4224BF5B1A40EA0C0036
S214402C30B3EB510F24BFA3EB510340EA5C00B3EB68
S214402C40910F24BFA3EB910340EA9C00B3EBD10F56
S214402C5024BFA3EBD10340EADC001B0118BF5FEAA8
S214402C601C1CE0D1FD2A3FF650AF8B4240EBC250D1
S214402C7008BF20F0010070470CF0004C4CEA502092
S214402C807F32C2BFD2F1FF0340EAC250704740F4E1
S214402C9000004FF00003013A37E792F0000F00F0D3
S214402CA0004C02BF400010F4000F013AF9D040EA51
S214402CB00C0093F0000F01F0004C02BF490011F4E5
S214402CC0000F013BF9D041EA0C0195E70CEAD153DD
S214402CD092EA0C0F08D142027FF47DAF93EA0C0FC4
S214402CE07FF470AF084676E793EA0C0F04D14B02A8
S214402CF03FF44CAF08466EE730F0004C18BF31F05A
S214402D00004CCAD130F000427FF45CAF31F0004353
S214402D107FF43CAF5FE700BF42000ED2B2F1FE4FF9
S214402D200BD34FF09E03B3EB126209D44FEA002355
S214402D3043F0004323FA02F070474FF0000070471C
S214402D4012F1610F01D1420202D14FF0FF307047BD
S214402D504FF00000704700BF70B50F4E0F4D761B0A
S214402D60B61018BF002405D0013455F8043B9847E8
S214402D70A642F9D10A4E0B4D761B06F0FDFBB61067
S214402D8018BF002406D0013455F8043B9847A642A5
S214402D90F9D170BD70BD00BF849540008495400059
S214402DA08C954000849540000FB400B5074983B029
S214402DB004AB086853F8042B8168019301F03CFC8F
S214402DC003B05DF804EB04B0704700BF1C00002061
S214402DD070B4860746D0541E002A41D0CAB2034675
S214402DE002E014F1FF343BD303F8012B9D07F8D1E2
S214402DF0032C2ED9CDB245EA05250F2C45EA0545CC
S214402E0019D903F110022646103E0F2E42F8105CE8
S214402E1042F80C5C42F8085C42F8045C02F110028E
S214402E20F2D8A4F1100222F00F0204F00F04103280
S214402E30032C13440DD91E462246043A032A46F86C
S214402E40045BFAD8221F22F003020432134404F033
S214402E5003042CB1C9B21C4403F8011B9C42FBD1AD
S214402E6070BC704714460346C2E700BF00290CBF3B
S214402E70022200224FF4806300F000B82DE9F043B0
S214402E80614C256883B004460F4690461E4615B1F1
S214402E90AB6B002B64D0B8F1020F06D0B8F1010F2F
S214402EA000F29F80002EC0F29C80636ED80734D517
S214402EB02146284603F01EFB216B41B104F1400336
S214402EC0994202D0284603F093FC00232363B4F9CA
S214402ED00C300022A26162601A063AD423F44A6398
S214402EE023F00303B8F1020FA3811DD001AB6A465D
S214402EF02146284603F028FFA3891843A081002EC8
S214402F0032D1009E304603F097FF074600286BD02C
S214402F10A38943F08003A38128E0A3899905C7D4F9
S214402F20A06D03F00DFFC3E70025616E002604F197
S214402F30430243F002030120A660CE07A38122602D
S214402F402261606101D498053ED5284603B0BDE8AD
S214402F50F0832169284603F04BFCB4F90C30BDE7FA
S214402F60284603F01FFB96E7002FCBD0AB6B002B19
S214402F7033D0009BB4F90C2027609E421CBF42F41D
S214402F800062A281B8F1010F04BF42F00102A281A3
S214402F9092B212F00803276166610ED0D1071AD5A7
S214402FA0656E7642002315F00105A661A36009D040
S214402FB00025284603B0BDE8F083A360656E15F093
S214402FC00105F5D19305C0D4A06D03F0BBFE28469D
S214402FD003B0BDE8F083A660F0E7284603F0E2FAC7
S214402FE0C7E74FF0FF35B0E7DDF80090B14504D0B5
S214402FF0484603F021FF074620B9B4F90C304FF09D
S214403000FF3592E74E4683E71C0000200EB4F0B52D
S2144030109CB021AB0F4953F8042B019305466FF043
S2144030200044086802954FF402774FF6FF7602A9EF
S2144030300695ADF8147004940794ADF8166000F049
S2144030408DF8029B00221A701CB0BDE8F04003B019
S214403050704700BF1C000020000000000000000079
S214403060000000000000000000000000000000001B
S214403070000000000000000000000000000000000B
S21440308090F800F06DE9024520F007016FF0000C63
S21440309010F0070491F820F040F049804FF000040B
S2144030A06FF00700D1E9002391F840F000F10800E6
S2144030B082FA4CF2A4FA8CF283FA4CF3A2FA8CF31E
S2144030C04BBBD1E9022382FA4CF200F10800A4FA85
S2144030D08CF283FA4CF3A2FA8CF3E3B9D1E90423D9
S2144030E082FA4CF200F10800A4FA8CF283FA4CF310
S2144030F0A2FA8CF37BB9D1E9062301F1200182FACA
S2144031004CF200F10800A4FA8CF283FA4CF3A2FACF
S2144031108CF3002BC6D0002A04BF04301A4612BADD
S214403120B2FA82F2FDE8024500EBD2007047D1E9E0
S214403130002304F00305C4F100004FEAC50514F06F
S214403140040F91F840F00CFA05F562EA05021CBF40
S21440315063EA050362464FF00004A9E72DE9F04F05
S214403160C3B00C460B9192460F930C9003F0D6FDDD
S21440317003681A931846FFF783FFA3891990190628
S21440318003D52369002B01F0038000230DF1C80905
S2144031901393159314932793269318931B9309938D
S2144031A0CDF89490C846169317939AF80030544634
S2144031B0E3B1252B02D119E0252B03D014F8013FAB
S2144031C0002BF9D1A4EB0A0585B1269B279AC8F8AF
S2144031D000A001332A44072BC8F8045027922693B0
S2144031E07FDC08F10808099B2B4409932378002BC1
S2144031F07FD000231A468DF8773019460D939B46AC
S2144032004FF0FF3063780A9004F1010A0AF1010A90
S214403210A3F12000582800F2C183DFE810F03802FE
S214403220BF03BF034002BF03BF03BF03BF03BF03C9
S214403230BF0345020302BF035D006B02BF03860265
S2144032409D039D039D039D039D039D039D039D0339
S2144032509D03BF03BF03BF03BF03BF03BF03BF033B
S214403260BF03BF03BF0337035703BF035703BF0361
S214403270BF03BF03BF039803BF03BF03AD03BF0332
S214403280BF03BF03BF03BF035902BF03BF031E03F1
S214403290BF03BF03BF03BF03BF03BF03BF03BF03D9
S2144032A0BF03BF03C602DB025703570357038B0215
S2144032B0DB02BF03BF039002BF039D02CC01B402F2
S2144032C00802BF03E101BF037E00BF03BF030D0238
S2144032D00D980F9340420D904BF0040B9AF8003037
S2144032E094E725AA0B990C9804F0CAFE40B9C84644
S2144032F079E7279B23B10C980B9925AA04F0C0FECA
S2144033000B9B9B8913F0400F099B18BF4FF0FF3370
S2144033100993099843B0BDE8F08F1BF0200F119336
S21440332040F0DD810F9A1BF0100F134640F06E857B
S2144033301BF0400F00F06A851488043200250123F4
S2144033400F9200278DF877700A994A1C00F0658224
S2144033502BF08002079254EA050240F0648200296E
S21440336040F03C84002B40F0D7841BF001030E93C2
S21440337000F0048642AE302306F8413D0A9B0E9A82
S2144033809342B8BF134608930023129317B1089B85
S21440339001330893079B13F00203109302D0089B57
S2144033A002330893079B13F0840540F00E830D9B71
S2144033B0089AA3EB020BBBF1000F40F30683BBF168
S2144033C0100F279C269A29DD43462146A8461027FB
S2144033D00C9C0B9D06E0ABF1100BBBF1100F03F1FC
S2144033E0080318DD0132B74826921031072A279184
S2144033F083E88100EFDD25AA2946204604F040FEFA
S21440340000287FF47DAFABF1100BBBF1100F27996E
S214403410269A4B46E6DC45460C4698460132A94B72
S21440342026925C44072A279488E8080800F3988484
S2144034309DF8777008F1080877B1269B0133013470
S2144034400DF177010122072B2794269388E8060082
S21440345000F3DB8308F10808109B6BB1269B013311
S21440346002341EA90222072B2794269388E80600DA
S21440347000F3D68308F10808802D00F015830A9BD8
S2144034800E9A9F1A002F36DD102F269B8E4D27DD75
S21440349042462146B0464FF0100B2E460C9C0B9DE4
S2144034A004E0103F102F02F1080215DD0133103101
S2144034B0072B2791269382E84008F2DD25AA294665
S2144034C0204604F0DDFD00287FF41AAF103F102F91
S2144034D02799269B4A46E9DC35460C4646469046A2
S2144034E001333C44072B2794269388E8A00000F33A
S2144034F0818308F10808079BDF0500F16882269B58
S2144035000E99C8F8006001330C44072B2794C8F87E
S2144035100410269300F34D8308F10808079B5B07C9
S2144035203AD50D9B089A9D1A002D35DD102D269B09
S21440353020DD10260C9FDDF82CB004E0103D102D49
S21440354008F1080816DD01335E4A26931034072B2F
S214403550279488E84400F1DD25AA5946384604F009
S2144035608FFD00287FF4CCAE103D102D279C269B67
S214403570C846E8DC0133534A26932C44072B27944D
S21440358088E8240008DD25AA0B990C9804F078FDFD
S21440359000287FF4B5AE279C099B0D9A08998A426D
S2144035A0ACBF9B185B180993002C40F00D8300239A
S2144035B02693C846F9E511931BF0200340F0E381BB
S2144035C01BF0100240F02E841BF0400300F02A84CB
S2144035D00F9913460A4604320C880F920025B0E62F
S2144035E00F9A1193166800248DF87740151D002E0B
S2144035F000F0A7860A9A531C00F0098621463046FA
S21440360003F0EEFE002800F0E186831B0E930A943A
S2144036100F95CDF81CB023EAE373089312949DF8F7
S2144036207770B3E69AF8003001222B21EEE54BF096
S214403630200B9AF80030E9E51193002A40F0958770
S214403640224B18931BF0200F40F011810F9A1BF06D
S214403650100F134640F0E1831BF0400F00F0DD836F
S214403660043314880F9300251BF0010F00F00C81E3
S21440367054EA050300F0088130239DF844208DF875
S21440368078308DF879204BF0020B022359E69AF8F1
S214403690003000297FF4BAAD01222021B6E54BF078
S2144036A0010B9AF80030B1E50F9C23680D9318463D
S2144036B00028234603F10403FFF60AAE0F939AF858
S2144036C00030A3E51493400024934000F492400059
S2144036D04BF0100B1BF0200F11933FF423AE0F9DC1
S2144036E0073525F0070303F10802D3E900450F929A
S2144036F0012326E69AF800302A2B0AF1010400F04E
S2144037002787A3F130000928A24600F2AD860023A1
S2144037101C461AF8013B04EB840400EB4404A3F176
S21440372030000928F5D90A9472E54BF0800B9AF8D8
S21440373000306BE54BF0400B9AF8003066E59AF89F
S21440374000306C2B03BF9AF801304BF0200B0AF187
S214403750010A4BF0100B59E5002A40F011871BF088
S214403760200F40F0F9841BF0100F40F0AC841BF0A3
S214403770400F00F0A8840F9A136804320F92BDF8E9
S21440378024201A8011E50F99B34B0C681893302209
S214403790782304318DF8793011934BF0020B0F915A
S2144037A000258DF878200223CBE50F9911930A68FF
S2144037B08DF8A02000230A461F468DF87730043245
S2144037C001230893CDF81CB00A9712970F920E93D8
S2144037D028AEDFE51193002A40F0EA861BF0200F62
S2144037E05DD11BF0100F40F008831BF0400F00F037
S2144037F004830F99B1F900400431E51722462B4661
S2144038000F91002A73F1000358DB0A999DF87770F0
S2144038104A1C4FF001037FF49BAD54EA050200F0CA
S214403820DF81CDF81CB0012B00F07B82022B40F0EC
S214403830068218984E46230904F00F0143EA0573A2
S2144038402A091C461546435C06F8013D54EA050322
S214403850F1D1A9EB06030E9390E51193002A40F0B0
S214403860A3867E4B18931BF0200F3FF4EFAE0F9DC0
S214403870073525F0070303F108021BF0010F0F92EE
S214403880D3E900457FF4F4AE02235AE51193002AAB
S21440389040F086864BF0100B1BF0200FA1D00F9DFA
S2144038A0073525F00705D5E90023002A05F108016C
S2144038B01D4673F100030F911446A6DA2D27644285
S2144038C065EB45058DF8777001233DE51193002A99
S2144038D040F062860F9D073525F0070303F1080286
S2144038E00F921A6815925B681493149B159D23F0EB
S2144038F00044284621464FF0FF32594B04F0C4FEA0
S214403900002840F04A83284621464FF0FF32544B69
S21440391004F09CFE002840F0408315A80DC814997A
S21440392004F08AFE002840F030859DF877704D4EB2
S2144039304D4B2BF0800007901198032200210892EF
S2144039400A914728D8BF1E460E9212911EE54BF0AC
S214403950080B9AF8003059E4A3F1300000231C46C7
S2144039601AF8013B04EB840400EB4404A3F1300056
S2144039700928F5D90D944BE44BF0100B11931BF02E
S21440398020033FF41DAE0F9D073525F0070303F1D6
S2144039900802D3E900450F920023D2E41193002A8F
S2144039A040F0E785119A002A3FF4A3AC002301219A
S2144039B01F4608918DF8A020CDF81CB08DF87730C2
S2144039C00A9312930E9128AEE4E4279C34E5119BAB
S2144039D0652B40F3A78015A80DC8149904F022FE65
S2144039E0002800F05081269B204AC8F8002001336A
S2144039F001340122072B27942693C8F8042000F3AD
S214403A006A8308F108081F9B139A279C934203DB9E
S214403A10079BDD077FF582AD269B19991A9AC8F851
S214403A20002001330C44072BC8F804102794269333
S214403A3000F39E8308F10808139B5E1E002E7FF756
S214403A406DAD102E269B0A4D40F3F5812246102779
S214403A50DDF830B00B9C13E0F4924000E09240005A
S214403A60FFFFEF7FD4924000D0924000109340007A
S214403A702493400008F10808103E102E40F3DA81E7
S214403A8001331032072B2792269388E8A000F1DDF9
S214403A9025AA2146584604F0F3FA00287FF430ACB5
S214403AA0279A269BC846E7E70D9B089A9F1A002F41
S214403AB07FF7E5AC102F269BB64D27DD42462146C4
S214403AC0B0464FF0100B2E460C9C0B9D04E0103F6A
S214403AD0102F02F1080215DD01331031072B279114
S214403AE0269382E84008F2DD25AA2946204604F0BF
S214403AF0C7FA00287FF404AC103F102F2799269B66
S214403B004A46E9DC35460C464646904601333C4438
S214403B10072B2794269388E8A00000F3328208F10A
S214403B200808ACE4139B269F012B40F3FE81013727
S214403B3001340123072F27942697C8F80060C8F859
S214403B40043000F3038208F10808199A1A9BC8F853
S214403B50003001371444072F27942697C8F80420CE
S214403B6000F3008208F1080815A80DC8149904F05F
S214403B7059FD139B002840F00181013B0137013677
S214403B801C44072F26972794C8F80060C8F80430CE
S214403B9000F3278108F108081B9AC8F8042001376B
S214403BA0144421AB072F27942697C8F800307FF798
S214403BB0B3AC25AA0B990C9804F062FA00287FF45F
S214403BC09FAB279CC846A9E425AA0B990C9804F0FD
S214403BD057FA00283FF4EBACFFF792BBDDF81CB079
S214403BE0012B00F03481022B25D1CDF81CB00024E7
S214403BF000251EE625AA0B990C9804F041FA0028E9
S214403C007FF47EAB279CC84675E425AA0B990C9892
S214403C1004F036FA00287FF473AB279CC8461BE4B2
S214403C2025AA0B990C9804F02BFA00287FF468AB71
S214403C30279CC84620E4CDF81CB000240025494601
S214403C4000E03146E20842EA4572E80804F007031D
S214403C5005461446303354EA050201F8013C01F1AA
S214403C60FF36EED1079AD2077FF5F3AD302B3FF4FF
S214403C70F0AD0239302306F8013CA9EB01030E9360
S214403C800E46FFF77BBB1F99002940F32E82129BFE
S214403C90139A9342A8BF1346002B1F460DDD269B62
S214403CA0C8F8006001333C44072B2794C8F80470DA
S214403CB0269300F31F8308F10808129B002FA8BF25
S214403CC0DB1B002B1F4640F3D680102F269B314D22
S214403CD040F3ED8142462146B0464FF0100B2E464B
S214403CE00C9C0B9D04E00832103F102F40F3DB8104
S214403CF001331031072B2791269382E84008F2DDE6
S214403D0025AA2946204604F0BBF900287FF4F8AAE5
S214403D102799269B4A46E7E70A9B0E934E46FFF7AF
S214403D202DBB002D08BF0A2CC0F08F804E46204683
S214403D3029460A22002304F0E5FC303206F8012D1D
S214403D402046294600230A2204F0DCFC04460D46A1
S214403D5054EA0503EBD1A9EB06030E93FFF70EBB1F
S214403D6025AA0B990C9804F08BF900287FF4C8AA72
S214403D709DF87770279CC846FFF75EBB5E1E002EF8
S214403D807FF70AAF102E034D22DD22464FF0100B70
S214403D900C9C06E024934000103E102E08F10808C4
S214403DA015DD01371032072F2792269788E820081E
S214403DB0F2DD25AA0B99204604F062F900287FF42C
S214403DC09FAA103E102E279A269FC846E9DC144626
S214403DD001373444072F2794269788E860007FF7FA
S214403DE0D9AE25AA0B990C9804F04AF900287FF41E
S214403DF087AA279C269FC846CEE60F9A1468134685
S214403E000433E5170F9322462B46FAE404321C6827
S214403E100F9201230025FFF794BA1C6804330F93D2
S214403E20002521E40F990A4604320C680F920025BB
S214403E30FFF787BA144601333444072B279426935A
S214403E4088E860007FF768ABB3E6DDF81CB0CDF8D5
S214403E501CB042AE3034012306F8414D0E93FFF7B6
S214403E608DBA25AA0B990C9804F00AF900287FF41D
S214403E7047AA279CC8461F9A139B9A4244DB079B37
S214403E80D90741D4139B12989A1A1D1A9542A8BF77
S214403E901546002D0EDD2699C8F80450013106441B
S214403EA02C440729C8F800602794269100F33B82EB
S214403EB008F10808002DACBF561B1646002E7FF7AB
S214403EC02DAB102E269BB04DB5DD22461027DDF8D3
S214403ED030B00B9C04E008F10808103E102EA9DD17
S214403EE001331032072B2792269388E8A000F2DD94
S214403EF025AA2146584604F0C3F800287FF400AAB5
S214403F00279A269BC846E8E7269B19981A99C8F828
S214403F10001001330444072B2794C8F80400269366
S214403F2000F3F58108F10808ACE7079BDA073FF590
S214403F30FEAD013701340123072F27942697C8F892
S214403F400060C8F804307FF725AE4AE725AA0B99EB
S214403F500C9804F095F800287FF4D2A9279C269F59
S214403F60C846F2E525AA0B990C9804F089F8002873
S214403F707FF4C6A9279C269FC846F5E54E46FFF720
S214403F80FDB925AA0B990C9804F07AF800287FF41E
S214403F90B7A9279CC846FFF772BA159C224620460A
S214403FA0149C2346214604F06FFB002840F086828E
S214403FB00A9B0133119B23F020030E9300F0E2810D
S214403FC0472B00F01E814BF480730793149B1F1EF3
S214403FD0159B0893BBBF3B4603F1004700232D23A8
S214403FE01093119B662B00F0BB81462B00F0DF80C0
S214403FF00E9B089A452B0CBF0A9B0A9D23A820A916
S21440400008BF5D1C049003911FA802213B46029006
S214404010019500910C9801F0A3FA119B672B064678
S21440402040F0E0811BF0010F00F046827419169AAA
S2144040300898179B394604F0F5FA002840F0658149
S214404040239BA34206D230215A1C23921970239BED
S2144040509C42F9D89B1B13930E9B472B00F0E9809C
S214404060119B652B40F3CD81119B662B1F9B1293B2
S21440407000F09E81139B129A1946914200F38A8162
S2144040801BF0010F40F0138222EAE2730893672385
S2144040900E921193109B002B40F0C4800A939DF81B
S2144040A07770FFF773B935460C464646904601335F
S2144040B03C44072B2794269388E8A0003FF7D1AED0
S2144040C008F10808D7E60F9A136804320F92099A47
S2144040D01A60FFF76AB825AA0B990C9803F0D0FF30
S2144040E000287FF40DA9C8468DE4269B274AC8F8C9
S2144040F00020013301340122072B27942693C8F869
S214404100042072DC08F1080829B9139B1BB9079BE9
S214404110D8077FF503AA269B19981A9AC8F8002054
S214404120013302462244072B2792C8F80400269300
S21440413000F38D8108F108080029C0F265811399C3
S214404140C8F8006001338C18072B27942693C8F8CC
S21440415004107FF7E1A92CE50F9A09991368CD174B
S2144041600846043229460F92C3E90001FFF71DB8FE
S21440417025AA0B990C9803F083FF00287FF4C0A86B
S214404180279CC84658E400BF249340001093400044
S21440419040210C9802F058FE0B9A106010610028DF
S2144041A000F0F2810B9A40235361FEF7EEBF23A83E
S2144041B020A90A9C049003911FA803210290089A04
S2144041C001943B4600910C9801F0CAF925460646F4
S2144041D0119B462B06EB05047FF429AF3378302B32
S2144041E000F078811F9D2C4421E725AA0B990C9856
S2144041F003F046FF00287FF483A81F99279CC846F3
S21440420082E70A9B002B08BF01230A93DBE6304671
S2144042100A94FEF735FF0F950E90CDF81CB0034676
S214404220FFF7F9B92D2700238DF877700A93FFF72B
S214404230AEB81F9B12931A46033304DB0A9B1946FB
S2144042409142BFF617AF119B023B11939DF8443045
S2144042508DF88430129B013B002B1F93BDBF129BF1
S214404260C3F101032D222B22092B8DF8852040F324
S21440427016810DF193042046AB4D00E0104685FBB9
S2144042800312D917C1EBA20101EB8102A3EB420254
S2144042903032092900F8012C0B4600F1FF32EDDCE4
S2144042A030330238D9B2844202F8011C40F26581AC
S2144042B00DF18600134601E013F8011B00F8011BC0
S2144042C0A342F9D101339B1A0DF18602134421AA69
S2144042D09B1A139A1B93012A13440E9340F3198199
S2144042E00E9B199A13440E9323EAE3730893002314
S2144042F01293CFE625AA0B990C9803F0C1FE00282E
S2144043007EF4FEAF279CC846D7E42346A2E625AAFD
S2144043100B990C9803F0B4FE00287EF4F1AF1F9A78
S214404320279CC846AEE525AA0B990C9803F0A8FE34
S21440433000287EF4E5AF1F9A139B279C9A1AC8461E
S214404340B8E50A9B1296062B28BF06230A963746E0
S21440435008930F95CDF81CB00E93744EFFF716B821
S21440436023A820A90A9D049003911FA80321029028
S214404370089A01953B4600910C9801F0F1F80646E4
S21440438044192BE706230A931DE62D278DF87770F0
S214404390FFF7CDBA199A139B1344129A0E93002A2C
S2144043A040F3B08023EAE37308936723119371E6E2
S2144043B0002B40F3C3800A9A002A40F099801BF0F5
S2144043C0010F40F0958008930E9363E60A9B08938E
S2144043D00E930A900F95CDF81CB012909DF877700A
S2144043E0FEF7D4BF119B472B7FF420AE1BF0010F86
S2144043F07FF4EEAE239B9B1B13930E9B472B3FF401
S21440440018AF1F9B129321E74F421031484D2FDAC9
S2144044101024DDF830B004E008F10808103F102FF3
S21440442026DD01331032072B27922693C8F800501A
S214404430C8F80440F0DD25AA0B99584603F020FE44
S21440444000287EF45DAF279A269BC846E6E725AA55
S2144044500B990C9803F014FE00287EF451AF1F9978
S214404460279A269BC84667E600200A90FEF7D0BEED
S21440447001333A44072B88E8A0002792269308F198
S21440448008087FF75CAE25AA0B990C9803F0F8FD58
S21440449000287EF435AF279A269BC8464FE6303331
S2144044A030228DF887308DF8862022AB0FE7129B9E
S2144044B0199A13440E9375E7239BCBE5149B1D4E28
S2144044C0002BB6BF2D279DF877708DF877701A4B66
S2144044D0FFF72FBA169A0898179B394604F0A2F8A9
S2144044E000287FF47FAEC5F101051F952C449EE55C
S2144044F0129B199A13440A9A1A4422EAE2730E92BD
S2144045000893C7E5129B0E9AC3F101031A4413465B
S214404510D0E71BF0010312937FF4E2AE0E9B23EA32
S214404520E3730893B6E500BF676666660893400087
S21440453024934000DC924000D89240000A9B13B976
S2144045401BF0010F02D0199B0133D4E701233AE751
S2144045500F9D9AF80130286840EAE0700A90284695
S2144045600430A2460F90FEF751BE8DF87710FFF745
S21440457067B88DF87710FFF715BA0DF18603A6E6F3
S2144045808DF87710FFF7EBB80C9A0C2313604FF0BA
S214404590FF330993FEF7BDBE8DF87710FFF79AB943
S2144045A08DF87710FFF776B98DF87710FFF759B981
S2144045B08DF87710FFF712B92DE9F84F4B6E9C0433
S2144045C093462FD59368126853B30E46074602F1BA
S2144045D0080919E920045FEA9A0817D0043D002428
S2144045E001E0A04510D0324655F8041F384602F088
S2144045F07BF8431C04F10104F3D10023CBF80830C8
S214404600CBF80430BDE8F88FDBF808302AF0030A10
S214404610A3EB0A03CBF8083009F10809002BD8D1E0
S2144046200020EAE702F0CAF90023CBF80830CBF8BE
S2144046300430BDE8F88F00BF2DE9F04FADB01D4601
S2144046408B4690460793069018B1836B002B00F07C
S214404650F380DBF86430BBF90C00DF0781B202D48C
S2144046608E0540F1FC808C040AD4DBF8643040F4BC
S214404670005123F40053ABF80C10CBF8643089B2E9
S214404680080740F1B380DBF81030002B00F0AE8016
S21440469001F01A030A2B00F0B58000230DF17009D3
S2144046A00B93119310930393CDF83C90CA46CDF8E4
S2144046B010B098F800304446FBB1252B02D11CE0E0
S2144046C0252B03D014F8013F002BF9D1A4EB0805A5
S2144046D09DB1109B119ACAF8008001332A44072BDB
S2144046E0CAF80450119210937ADD002A40F0B08444
S2144046F0039B10922B44CA4603932378002B00F06A
S214404700E08300204FF000038DF8373004F10108B5
S21440471062780546064603464FF0FF3408F1010826
S214404720A2F12001582900F2DE82DFE811F02102D2
S214404730DC02DC022902DC02DC02DC02DC02DC02F7
S214404740DC0289029502DC02A200BD02DC029F0167
S214404750A401A401A401A401A401A401A401A401EC
S214404760A401DC02DC02DC02DC02DC02DC02DC024D
S214404770DC02DC02DC02B201DC02DC02DC02DC022F
S214404780DC02DC02DC02DC02DC02DC029701DC023A
S214404790DC02DC02DC02DC029B01DC02DC025302AF
S2144047A0DC02DC02DC02DC02DC02DC02DC02DC02D4
S2144047B0DC02DC025A021B02DC02DC02DC026E0275
S2144047C01B02DC02DC027302DC02F50182010902F4
S2144047D0D702DC029A02DC02A700DC02DC022E02D0
S2144047E00AF1080A039B2B44039386E7594606982A
S2144047F000F0ACFD18BBBBF80C1001F01A030A2BF6
S2144048007FF44BAFBBF90E30002BFFF646AFDBF81C
S2144048106430DB0705D48F0503D4DBF8580002F07C
S21440482091FA2B4642465946069800F04DFD0390B5
S21440483003982DB0BDE8F08F01F0B4FE09E7DBF831
S2144048406430D90704D4BBF80C309A0540F1AA84EA
S2144048504FF0FF33039303982DB0BDE8F08FDBF89D
S214404860580002F06DFABBF90C0081B2FBE67642C6
S214404870079243F0040398F800204FE708969E06F8
S21440488000F150840799DD060A4600F1EF8358068A
S21440489040F1EC830E8804310027012207914FF047
S2144048A000018DF837100025611C00F0168123F0BA
S2144048B08001029156EA070140F01481002C40F036
S2144048C05C83002A40F0B78313F00103059300F0A1
S2144048D057840DF1B00B30230BF8413D059BA342A6
S2144048E0B8BF234601930DB101330193029B13F0E9
S2144048F00203099302D0019B02330193029B13F0FB
S21440490084030A9340F01782089B019A9D1A002D53
S21440491040F31182102D40F39084109B119AC44EA0
S214404920D6461027A2461946069C07E001F1020C1F
S2144049300EF1080E0146103D102D11DD481C1032B8
S214404940072811928EE8C0001090EFDD002A40F054
S214404950E481103D102D11464FF0010CCE46EDDCA3
S21440496054466146F2462A4407291192CAF8006026
S214404970CAF80450109100F3EC829DF837500AF1C3
S214404980080A481C002D40F0DE81099B002B00F0F1
S214404990F88102320EA902230728119210908AE865
S2144049A00A0040F3EA81002A40F08C830A9B802B61
S2144049B04FF001001146CA4640F0E781089B019D32
S2144049C05E1B002E40F3E181102E9A4D40F350843A
S2144049D0D4461027A246069C07E001F1020E0CF1D1
S2144049E0080C0146103E102E11DD481C10320728D8
S2144049F011928CE8A0001090EFDD002A40F09D82D6
S214404A00103E102E4FF0010E1146CC46EDDC5446BB
S214404A10E2463244BEF1070F11928AE86000CDF8B4
S214404A2040E000F369830AF1080A0EF1010071467E
S214404A30ABE1089613F0200240F08C8313F010018F
S214404A4040F01A8313F0400200F0168307980A4697
S214404A500146043106880791002720E7089643F070
S214404A601003E7E7089643F0100308E743F0800397
S214404A7098F8002052E6A2F13001002618F8012BE3
S214404A8006EB860601EB4606A2F130010929F5D968
S214404A9046E60896002840F0088443F010039E0639
S214404AA000F14C83DD0600F1F382580640F1F082B7
S214404AB0079DB5F900602A46F71704323046394656
S214404AC00792002871F10002C0F25D83611C9DF8D8
S214404AD037504FF001027FF4EAAE56EA070100F085
S214404AE04D820293012A00F08C82022A40F05C82BA
S214404AF00B98CB46330906F00F0143EA07733A0991
S214404B001E461746435C0BF8013D56EA0703F1D1B3
S214404B10A9EB0B030593E1E6002840F0C083990615
S214404B2000F16783DA0600F1F1805B0640F1EE8023
S214404B30079A136804320792BDF80C201A80B8E52D
S214404B4007983D4A08960B92066878223021043032
S214404B508DF8392043F00203079000278DF838106F
S214404B6002229CE60896002899D08DF8375096E7A2
S214404B7098F80020002D7FF4D1AD01202025CDE50A
S214404B8043F0010398F80020C8E50896002840F056
S214404B90938329490B919F0600F1E8820798DE0629
S214404BA0014600F170825D0640F16D820431068850
S214404BB007910027D80740F1228256EA070100F005
S214404BC01E8230218DF8392043F002038DF83810CC
S214404BD0022264E60896002840F06B8317490B9142
S214404BE0D9E7079908960A688DF848204FF00000E4
S214404BF00A468DF83700043201200190079205904E
S214404C000DF1480B0293002470E643F0400398F8F9
S214404C10002083E598F800206C2A03BF98F801200E
S214404C2043F0200308F1010843F0100376E500BF87
S214404C303493400044934000F4924000E092400099
S214404C4007990E680A46002E02F10402FFF60FAEE0
S214404C50079298F8002061E598F8002001202B255F
S214404C605CE507990896D1F800B04FF000028DF841
S214404C7037200E1DBBF1000F00F0E582671C00F0E8
S214404C80C482224600215846019302F0A9FB019BAC
S214404C90002800F0E582A0EB0B02059207960293EF
S214404CA09DF83750002419E698F800202A2A08F183
S214404CB0010700F0E982A2F130010929B8464FF019
S214404CC000043FF62DAD18F8012B04EB840401EBED
S214404CD04404A2F130010929F5D921E543F0200327
S214404CE098F800201AE50896002840F0DB82002A53
S214404CF000F0E78001218DF848204FF00002019136
S214404D008DF8372005910DF1480B7BE7079A13681D
S214404D1004320792039A1A60CBE40FAA04992046FD
S214404D20FFF74AFC002840F039811099119A01F1AA
S214404D30010CCE46FFE51099119A481C9DF8375055
S214404D40002D3FF422AE01320DF137050121072830
S214404D5011921090CAF80050CAF8041040F3088127
S214404D60002A40F0BC81099B002B3FF41FAE0EABDF
S214404D70022208461C931D92CA4601460AF1080ABA
S214404D8001300A9B802B3FF419AE059BE41A002C99
S214404D902EDD102CB34D1EDDD6461026069FDDF8C0
S214404DA010A006E0881C0EF1080E1946103C102C88
S214404DB010DD4B1C1032072B11928EE860001093CA
S214404DC0F0DD002A65D1103C102C4FF00100114652
S214404DD0CE46EEDCF246224407281192CAF800502E
S214404DE0CAF80440109000F385800AF1080A0130A2
S214404DF00599CAF800B00A4407281192CAF8041068
S214404E00109040F38280002A40F01881029B109256
S214404E10580735D5089B01995C1A002C40F3E7806B
S214404E20CA46102C40F3188210998F4E069FDDF824
S214404E3010B0102506E0881C0AF1080A1946103CF6
S214404E40102C11DD4B1C1032072B1192CAF8006053
S214404E50CAF804501093EEDD42BB103C102C4FF0C5
S214404E6001001146CA46EDDC224407281192CAF8D2
S214404E700060CAF80440109051DD002A40F09B8143
S214404E80039B089A01998A42ACBF9B185B18039310
S214404E904EE00FAA51463846FFF78EFB002840F0FA
S214404EA03F811099119A481CCE467FE70FAA594673
S214404EB03846FFF781FB60B91099119A481CCA46DC
S214404EC0BDE7119BDDF810B0002B40F0D4810023E5
S214404ED01093DBF8643013F0010FBBF80C3002D1AE
S214404EE09A0540F1DE805B063FF5B2AC03982DB0E4
S214404EF0BDE8F08F002A40F00681059A1D920123F6
S214404F001192CDF870B01093CA460AF1080A029B77
S214404F10590704D5089B01995C1A002C81DC039B39
S214404F20089901988142ACBF5B181B18039372BB6B
S214404F3000231093CA46FFF7BCBB0FAA049920462D
S214404F40FFF73AFB50BB1099119A01F1010ECC467F
S214404F5048E5002A40F040819DF83710002900F0CF
S214404F601B8101220DF1370110461D921C91CA4645
S214404F7001460AF1080A013007E5029B012A00F0C3
S214404F809880022A0DD1029300260027B0E50FAA8A
S214404F9004990698FFF710FB0028C9D0DDF810B03A
S214404FA097E7029300260027494600E05946F20854
S214404FB042EA4772F80806F00703074616463033BB
S214404FC056EA070201F8013C01F1FF3BEED1029A96
S214404FD0D6077FF59DAD302B3FF49AAD023930238E
S214404FE00BF8013CA9EB010305938B4676E4039B43
S214404FF0089A8A42ACBF9B185B18039398E7022234
S2144050004DE4002F08BF0A2E52D3CB4630463946D1
S2144050100A22002303F076FB30320BF8012D30468F
S214405020394600230A2203F06DFB06460F4656EA31
S2144050300703EBD16CE50594CB464FE40FAA0499E1
S2144050400698FFF7B9FA0028A8D1119ACA465EE733
S2144050500FAA04990698FFF7AFFA00289ED1CA46D1
S214405060FFF7C0BB449340003493400004311668B9
S21440507007910122002712E407980146043106688A
S214405080079100270BE40E6804310791002791E54D
S21440509007990E680A46F717043207923046394693
S2144050A00FE5DBF8580001F04DFEBBF80C301AE770
S2144050B0029B02930DF1B00B303601230BF8416D85
S2144050C005930BE40FAA04990698FFF775FA002893
S2144050D07FF464AF1099119A481CCA4651E60FAA4D
S2144050E004990698FFF768FA00287FF457AF10999E
S2144050F0119A481CCA4648E4002A40F09180012094
S2144051001146CA4641E60FAA04990698FFF754FA94
S21440511000287FF443AF1098119A0130CA4667E6DC
S214405120D346D6E6079E073626F0070202F1080168
S214405130D2E9006707910122FFF7B1BB079E073609
S21440514026F00706D6E9000106F108020792064651
S2144051500F46B6E4079E073626F0070202F108011E
S214405160D2E9006707910022FFF799BB079E0736F2
S21440517026F0070101F108000790D1E9006719E51C
S214405180CB46FFF7ABBB2D25764267EB47078DF83E
S21440519037500122FFF788BB099BB3B9114601205F
S2144051A0CA46F2E5DBF8580001F0CCFD4FF0FF337D
S2144051B00393FFF750BB0FAA04990698FFF7FCF934
S2144051C000287FF4EBAE119AA9E60EAB02221C93A0
S2144051D01D920120CA46D0E50FAA04990698FFF70B
S2144051E0EBF900287FF4DAAE1099119A481CCA46AB
S2144051F0A4E5079A03991368CD1708460432294652
S2144052000792C3E90001FFF754BA5846079602933F
S214405210FDF736FF002405909DF83750FFF75EBB3C
S2144052200FAA04990698FFF7C7F900287FF4B6AE90
S2144052301099119A481CCA46A7E51099119A204E13
S2144052400131FFF790BB062C28BF0624059407962D
S2144052500194DFF870B0D5E41098194E013003E69B
S21440526005949DF83750079602930446FFF736BBE1
S2144052708646FFF7CEBB06980FAA5946FFF79CF91D
S21440528000283FF424AE24E6079998F801200C68DD
S214405290043144EAE474B8460791FFF73FBA8DF804
S2144052A037503CE48DF8375021E58DF83750FFF7FE
S2144052B0F4BB8DF8375091E48DF8375069E400BF61
S2144052C034934000089340002DE9F0410C46ADF57C
S2144052D08D6D8989666EE589199621F0020106462C
S2144052E0E069ADF80C1017464FF48061626AADF87D
S2144052F00E5098461AAD0023079016A809920693BA
S214405300009504950291059101F016FD43463A46F4
S21440531069463046FFF790F9051E07DB304669467A
S21440532001F0E8F8002818BF4FF0FF35BDF80C3004
S2144053305B0603D5A38943F04003A381169801F08A
S214405340FDFC28460DF58D6DBDE8F08138B5304B37
S2144053501B6805460C4613B19A6B002A38D0B4F940
S2144053600C2093B218070CD52069A8B113F001029F
S2144053701ED0636900225B42A361A260F0B10020A8
S21440538038BDD9063CD5580726D4206942F00803D4
S214405390A3819BB20028E9D103F42072B2F5007FC6
S2144053A0E4D02846214601F0FDFCA3892069DDE7CC
S2144053B0990758BF6269A2600028E0D1B4F90C3062
S2144053C01A06DDD543F04003A3814FF0FF3038BDC9
S2144053D0184601F0E7F8C2E7216B51B104F14003EB
S2144053E0994204D0284601F003FAB4F90C20002371
S2144053F0236300232069636022F024022060C5E70F
S21440540042F0400209232B604FF0FF30A28138BDA6
S2144054101C000020024B13B1024800F005B870474C
S2144054200000000015664000002301461A46184654
S21440543002F04ABF02690B69934200F38D802DE962
S214405440F04F03F1FF3801F1140700F1140B57F841
S21440545028205BF828304FEA880483B00132B3FB3B
S214405460F2F90BEB0403009407EB040A0193B9F13D
S214405470000F39D000252E46BC46DE465CF8044B6D
S214405480DEF80030A2B209FB0255220C2C0C09FBB8
S2144054900242ADB2751B96B2C6EB134615FA83F3BD
S2144054A006EB23469BB243EA0643E2454FEA1245E3
S2144054B04EF8043B4FEA2646E0D2009B5BF80330AA
S2144054C093B9019C231F9B450CD254F8043C4BB91E
S2144054D0A4F1080302E01A68043B1AB99B4508F198
S2144054E0FF38F8D3C0F81080044602F0D1FA0028FE
S2144054F02EDB09F101095D46002357F8041B286896
S2144055008AB29A1A0B0C12FA80F2C3EB104303EBE2
S214405510224392B242EA0342BA4545F8042B4FEA88
S2144055202343EAD25BF828200BEB880382B91A1F84
S21440553093450BD253F8042C42B9083B02E01A6854
S214405540043B1AB99B4508F1FF38F8D3C4F81080DD
S214405550484603B0BDE8F08F0020704700000000CA
S2144055602DE9F04F016C9BB00446279E92469B4621
S21440557041B1426C4A60012393408B6002F0B0F820
S21440558000232364BBF1000F5D4635DB0023336008
S2144055909D4BAB4315D0504659460022002303F09E
S2144055A041F8804600282DD0269A01231360289B78
S2144055B0002B00F0BD809548186001381BB0BDE850
S2144055C0F08F269A42F20F731360BAF1000F0DD196
S2144055D0C5F3130555B9289B8D48002BEED000F136
S2144055E00803289A13601BB0BDE8F08F289B8948B3
S2144055F0002BE3D0C31CF4E701232BF000453360B7
S214405600AB46C5E718AA19AB0192009352465B46D3
S214405610204602F0DDFA2B0D814671D0CBF3130203
S21440562042F07F51189FCDF850805046A3F2FF3687
S21440563041F440110022784BFCF7FAFC6CA3D3E906
S2144056400023FCF7A9FE6CA3D3E90023FCF7F2FC89
S214405650CDE902013046FCF739FE69A3D3E90023C1
S214405660FCF79AFE02460B46DDE90201FCF7E2FC37
S214405670CDE9040103F01EF8002202900023DDE984
S214405680040102F0D9FF002840F07381029D162DD8
S21440569000F25D81614B03EBC503D3E9000152463E
S2144056A05B4602F0E7FF002800F0C5816B1E0293C0
S2144056B000230E93BF1B7B1E069300F154810023EC
S2144056C00893029B002BC0F24581069A0D93114623
S2144056D01944002306910C93249B092B2AD8052BAA
S2144056E040F35B86043B24930025249B023B032B1C
S2144056F000F24286DFE813F0D403C902DF036104F8
S214405700189F199E3E4406F23243202B40F38E816A
S214405710C3F1400306F212409D402AFA00F02843A7
S214405720FCF7C4FD0123013EA1F1F871149381E713
S2144057303B4843E7002161642046259101F0AAFFDB
S2144057404FF0FF330A93259A0F9301230490206469
S21440575024920B93199B002BC0F2D980029A0E2AF2
S21440576000F3D5802D4B03EBC203D3E90023CDE9EC
S2144057700823259B002BC0F2BA83DDE90856504625
S2144057802A4633465946FCF731FF02F093FF8046DF
S214405790FCF79CFD2A463346FCF7FEFD0B460246C8
S2144057A059465046FCF744FC049D08F130032B70E4
S2144057B00A9B012B06460F4605F1010568D00022DC
S2144057C0184BFCF7E9FD0022002306460F4602F080
S2144057D029FF002840F08880CDF82C904FF0000A32
S2144057E0DFF840B00C94DDE9088928E0AFF300808C
S2144057F061436F63A787D23FB3C8608B288AC63F92
S214405800FB799F501344D33F0000F07F1193400034
S21440581054934000609340000000F83FA09340003F
S2144058201093400000002440FCF7B6FD0022002301
S21440583006460F4602F0F6FE002840F0C183424678
S2144058404B4630463946FCF7D1FE02F033FF04465D
S214405850FCF73CFD42464B46FCF79EFD02460B4697
S21440586030463946FCF7E4FB04F1300E049E05F85A
S21440587001EBA5EB060E0A9EB645CDE9060152465B
S2144058805B46D1D1A046DDF82C900C9C06460F46D0
S21440589032463B4630463946FCF7CCFB06460F467A
S2144058A002460B46DDE9080102F0C6FE48B932461C
S2144058B03B46DDE9080102F0B5FEA8B118F0010F3D
S2144058C012D015F8018C049A6B1E04E09A4200F040
